:100000000C948C070C94D3070C94D3070C94D3074F
:100010000C94D3070C94D3070C94D3070C94D307F8
:100020000C94D3070C94D3070C94AF220C94822326
:100030000C94BD190C94D3070C94D3070C94D307DC
:100040000C94D3070C94D3070C94D3070C94D307C8
:100050000C94D3070C941E1A0C94D3070C94D3075A
:100060000C94D3070C94D3070C94D3070C94D307A8
:100070000C94D3070C94D3070C94D3070C94D30798
:100080000C94D3070C94D3070C94D3070C94D30788
:100090000C94D3070C94D3070C94D3070C94D30778
:1000A0000C94D3070C94D3070C94D30729000000B9
:1000B0003A003B003C003D003E003F004000410054
:1000C00042004300440045004C0049000000350058
:1000D0001E001F0020002100220023002400250014
:1000E000260027002D002E0000002A00000000003E
:1000F0002B00000014001A000800150017001C0057
:1001000018000C00120013002F0030000000000047
:1001100000003900000004001600070009000A0072
:100120000B000D000E000F0033003400280000000B
:10013000000000000000E1001D001B000600190087
:100140000500110010003600370038000000E10003
:10015000000000000000E000E3000000E2000000FA
:1001600000002C00000000000000E2000000E000A1
:10017000000000000000000001000000010001007C
:100180000100010001000100010001000100010067
:100190000100010001000100010001000100010057
:1001A0000100010001000100010001000100010047
:1001B000010001000000010000000000010000003B
:1001C0000100010001000100010001000100010027
:1001D0000100010001000100010000000000010019
:1001E0000000010001000100010001000100010008
:1001F00001000100010001000100000000000000FA
:1002000000000100010001000100010001000100E7
:1002100001000100010001000000010001000000D8
:1002200000000100010000000100000000000100CA
:1002300000000000000001000100010001000100B9
:1002400001000100010000000100010001000100A7
:100250000100010001000100010001000100010096
:100260000100010001000100010001000100010086
:100270000100010001000100010001000100010076
:10028000000001000000000001000000010001006A
:100290000100010001000100010001000100010056
:1002A0000100010001000000000001000000010049
:1002B0000100010001000100010001000100010036
:1002C000010001000100000000000000000001002A
:1002D0000100010001000100010001000100010016
:1002E0000100010000000100010000000000010009
:1002F00001000000010000000000010000000000FB
:1003000000000100010001000100010001000100E6
:1003100001000000010001000100010001000100D6
:1003200001000100010001000100010001000100C5
:1003300001000100010001000100010001000100B5
:1003400001000100010001000100010000000100A6
:100350000000000001000000010001000100010098
:100360000100010001000100010001000100010085
:100370000100000000000100000001000100010078
:100380000100010001000100010001000100010065
:100390000100000000000000000001000100010059
:1003A0000100010001000100010001000100010045
:1003B0000000010001000000000001000100000039
:1003C000010000000000010000000000000001002A
:1003D0000100010001000100010001000100000016
:1003E0000100010001000100010001000100010005
:1003F00001000100010001000100010001000100F5
:1004000001000100010001000100010001000100E4
:1004100001000100010001000000010000000000D7
:1004200001000000010001000100010001000100C5
:1004300001000100010001000100010001000000B5
:1004400000000100000001000100010001000100A6
:100450000100010001000100010001000100000095
:100460000000000000000100010001000100010087
:100470000100010001000100010001000000010075
:100480000100000000000100010000000100000068
:100490000000010000000000000001000100010058
:1004A0000100010001000100010000000100010045
:1004B0000100010001000100010001000100010034
:1004C0000100010001000100010001000100010024
:1004D0000100010001000100010001000100010014
:1004E0000100010000000100000000000100000008
:1004F00001000100010001000100010001000100F4
:1005000001000100010001000100000000000100E5
:1005100000000100010001000100010001000100D4
:1005200001000100010001000100000000000000C6
:1005300000000100010001000100010001000100B4
:1005400001000100010001000000010001000000A5
:100550000000010001000000010000000000010097
:100560000000000000000100010001000100010086
:100570000100010001000000010001000100010074
:100580000100010001000100010001000100010063
:100590000100010001000100010001000100010053
:1005A0000100010001000100010001000100010043
:1005B0000000010000000000010000000100010037
:1005C0000100010001000100010001000100010023
:1005D0000100010001000000000001000000010016
:1005E0000100010001000100010001000100010003
:1005F00001000100010000000000000000000100F7
:1006000001000100010001000100010001000100E2
:1006100001000100000001000100000000000100D5
:1006200001000000010000000000010000000000C7
:1006300000000100010001000100010001000100B3
:1006400001000000010001000100010001000100A3
:100650000100010001000100010001000100010092
:100660000100010001000100010001000100010082
:100670000100010001000100010001000000010073
:100680000000000001000000010001000100010065
:100690000100010001000100010001000100010052
:1006A0000100000000000100000001000100010045
:1006B0000100010001000100010001000100010032
:1006C0000100000000000000000001000100010026
:1006D0000100010001000100010001000100010012
:1006E0000000010001000000000001000100000006
:1006F00001000000000001000000000000000100F7
:1007000001000100010001000100010001000000E2
:1007100001000100010001000100010001000100D1
:1007200001000100010001000100010001000100C1
:1007300001000100010001000100010001000100B1
:1007400001000100010001000000010000000000A4
:100750000100000001000100010001000100010092
:100760000100010001000100010001000100000082
:100770000000010000000100010001000100010073
:100780000100010001000100010001000100000062
:100790000000000000000100010001000100010054
:1007A0000100010001000100010001000000010042
:1007B0000100000000000100010000000100000035
:1007C0000000010000000000000001000100010025
:1007D0000100010001000100010000000100010012
:1007E0000100010001000100010001000100010001
:1007F00001000100010001000100010001000100F1
:1008000001000100010001000100010001000100E0
:1008100001000100000001000000000001000000D4
:1008200001000100010001000100010001000100C0
:1008300001000100010001000100000000000100B2
:1008400000000100010001000100010001000100A1
:100850000100010001000100010000000000000093
:100860000000010001000100010001000100010081
:100870000100010001000100000001000100000072
:100880000000010001000000010000000000010064
:100890000000000000000100010001000100010053
:1008A0000100010001000000010001000100010041
:1008B0000100010001000100010001000100010030
:1008C0000100010001000100010001000100010020
:1008D0000100010001000100010001000100010010
:1008E0000000010000000000010000000100010004
:1008F00001000100010001000100010001000100F0
:1009000001000100010000000000010000000100E2
:1009100001000100010001000100010001000100CF
:1009200001000100010000000000000000000100C3
:1009300001000100010001000100010001000100AF
:1009400001000100000001000100000000000100A2
:100950000100000001000000000001000000000094
:100960000000010001000100010001000100010080
:100970000100000001000100010001000100010070
:10098000010001000100010001000100010001005F
:10099000010001000100010001000100010001004F
:1009A0000100010001000100010001000000010040
:1009B0000000000001000000010001000100010032
:1009C000010001000100010001000100010001001F
:1009D0000100000000000100000001000100010012
:1009E00001000100010001000100010001000100FF
:1009F00001000000000000000000010001000100F3
:100A000001000100010001000100010001000100DE
:100A100000000100010000000000010001000000D2
:100A200001000000000001000000000000000100C3
:100A300001000100010001000100010001000000AF
:100A4000010001000100010001000100010001009E
:100A5000010001000100010001000100010001008E
:100A6000010001000100010001000100010001007E
:100A70000100010001000100000001000000000071
:100A8000010000000100010001000100010001005F
:100A9000010001000100010001000100010000004F
:100AA0000000010000000100010001000100010040
:100AB000010001000100010001000100010000002F
:100AC0000000000000000100010001000100010021
:100AD000010001000100010001000100000001000F
:100AE0000100000000000100010000000100000002
:100AF00000000100000000000000010001000100F2
:100B000001000100010001000100000001000100DE
:100B100001000100010001000100010001000100CD
:100B200001000100010001000100010001000100BD
:100B300001000100010001000100010001000100AD
:100B400001000100000001000000000001000000A1
:100B5000010001000100010001000100010001008D
:100B6000010001000100010001000000000001007F
:100B7000000001000100010001000100010001006E
:100B80000100010001000100010000000000000060
:100B9000000001000100010001000100010001004E
:100BA000010001000100010000000100010000003F
:100BB0000000010001000000010000000000010031
:100BC0000000000000000100010001000100010020
:100BD000010001000100000001000100010001000E
:100BE00001000100010001000100010001000100FD
:100BF00001000100010001000100010001000100ED
:100C000001000100010001000100010001000100DC
:100C100000000100000000000100000001000100D0
:100C200001000100010001000100010001000100BC
:100C300001000100010000000000010000000100AF
:100C4000010001000100010001000100010001009C
:100C50000100010001000000000000000000010090
:100C6000010001000100010001000100010001007C
:100C7000010001000000010001000000000001006F
:100C80000100000001000000000001000000000061
:100C9000000001000100010001000100010001004D
:100CA000010000000100010001000100010001003D
:100CB000010001000100010001000100010001002C
:100CC000010001000100010001000100010001001C
:100CD000010001000100010001000100000001000D
:100CE00000000000010000000100010001000100FF
:100CF00001000100010001000100010001000100EC
:100D000001000000000001000000010001000100DE
:100D100001000100010001000100010001000100CB
:100D200001000000000000000000010001000100BF
:100D300001000100010001000100010001000100AB
:100D4000000001000100000000000100010000009F
:100D50000100000000000100000000000000010090
:100D600001000100010001000100010012036B00FD
:100D70006500790062006F0061007200640000008D
:100D8000160371006D006B006200750069006C0055
:100D900064006500720000000403090409026D008C
:100DA000040100A0FA090400000103010100092167
:100DB000110100012240000705810308000A09040F
:100DC00001000103010200092111010001224D006F
:100DD0000705820308000A0904020001030000005D
:100DE0000921110100012236000705830308000ACA
:100DF0000904030001030000000921110100012280
:100E000039000705840320000112011001000000D1
:100E100008EDFE606001000102000105010906A164
:100E200001050719E029E7150025019508750181DD
:100E300002050819012905950575019102950175AD
:100E40000391010507190029F71500250195F8758B
:100E5000018102C005010980A10185021601002659
:100E600003001A81002A8300751095018100C005D6
:100E70000C0901A1018503160100269C021A01003C
:100E80002A9C02751095018100C005010902A1018B
:100E90000901A1000509190129051500250195057C
:100EA0007501810295017503810105010930093140
:100EB0001581257F95027508810609381581257FE2
:100EC000950175088106050C0A38021581257F9564
:100ED0000175088106C0C005010906A101050719B1
:100EE000E029E71500250195087501810295017536
:100EF00008810105081901290595057501910295DB
:100F000001750391010507190029FF150026FF004F
:100F1000950675088100C00011241FBECFEFDAE0EE
:100F2000DEBFCDBF04B603FE27C080918902909139
:100F30008A02A0918B02B0918C028730904BA7401F
:100F4000B04BD1F41092890210928A0210928B0257
:100F500010928C0214BE84B7877F84BF0FB6F894BA
:100F6000A895809160008861809360001092600075
:100F70000FBEE0E0F8E3099511E0A0E0B1E0EEED8E
:100F8000FDE402C005900D92AE33B107D9F722E01F
:100F9000AEE3B1E001C01D92A938B207E1F70E94AB
:100FA00005200C94C1260C94000090E080E0089588
:100FB0000895089581E00895089581E008950C94BE
:100FC000DA070E94FE112FEF84E39CE0215080405D
:100FD0009040E1F700C000000C94411AEF92FF929C
:100FE0000F931F93CF93DF938C01FC01E080F1807E
:100FF0008091A201811140C082818823C1F1C70183
:101000000E948317C82F682FC7010E942C17B701B1
:101010008C2F0E942609EC01B8010E94DF0788236B
:1010200009F44BC0B801CE010E942F0B882309F4AC
:1010300044C0C531F0E7DF0720F5C23080E7D807AC
:1010400008F04DC0C115E0E7DE0791F1C130D0478F
:10105000E1F181E08093400180934101C801DF917B
:10106000CF911F910F91FF90EF900C94DD07C70176
:101070000E945A17C82FCBCFC7010E948317B70110
:10108000C8CFCC3380E7D80709F49BC0CD33D04715
:1010900001F7F8018281882309F4BAC01092410156
:1010A0000E94ED1990933F0180933E0180E296C02B
:1010B000F801828181110E94E10780E0DF91CF91E8
:1010C0001F910F91FF90EF900895F801828188237E
:1010D000A1F380914902816080934902EECFF8012B
:1010E0008281882309F4BACF0E943E19811102C07F
:1010F0000E9424190E945B1990E090937B028093D8
:101100007A02FE01E350F04780917A028160E23179
:10111000F10538F4ED53F94D0C94712680917A0263
:10112000826080937A0280917A020E945F190E9405
:10113000FE11C3CF80917A028460F3CF80917A024E
:101140008860EFCF80917A028061EBCF80917A0244
:101150008062E7CF80917A028064E3CF80917A0247
:101160008068DFCF80917A028C60DBCF80917A0239
:101170008E7FD7CF80917A028D7FD3CF80917A02F4
:101180008B7FCFCF80917A02877FCBCF80917A02FD
:101190008F7EC7CF80917A028F7DC3CF80917A02F4
:1011A0008F7BBFCF80917A028F77BBCF80917A02FD
:1011B000837FB7CF90917A02892F97FB87F9805868
:1011C000B0CFF8018281882361F0109240010E9423
:1011D000ED1990933F0180933E0182E00E94630FDE
:1011E0006CCF8091400181110FC080913E019091A0
:1011F0003F010E94F919883C910530F486E20E9473
:10120000380E86E20E94140F82E00E946A0F55CFCA
:101210008091410181110FC080913E0190913F0169
:101220000E94F919883C910530F487E20E94380E3B
:1012300087E20E94140F80E2E8CF0C947E0B0C949E
:10124000800B0C94DC070C9421090895972F70E013
:1012500021E1929F600D711D1124FB0196E6899F8B
:10126000E00DF11D1124EE0FFF1FE455FF4F859196
:1012700094910895FC01EE0FFF1FE459F24F859100
:10128000949108950E9426090E94B30A9C01811539
:1012900040E4940708F097C0211580E3380708F070
:1012A000FAC0203E310508F074C0203C310508F03A
:1012B000E5C0283A310588F4253A310508F0E2C046
:1012C0002130310509F477C0C9010497813A9105AD
:1012D00008F471C030E020E06EC0C901885A91095D
:1012E0004597C0F7283A310509F4FEC0293A31057F
:1012F00009F4FDC02A3A310509F4FCC02B3A310546
:1013000009F4FBC02C3A310509F4FAC02B3B310536
:1013100009F4F9C02C3B310509F4F8C02D3A310528
:1013200009F4F7C0203B310509F4F6C02E3A310527
:1013300009F4F5C02F3A310509F4F4C0213B310519
:1013400009F4F3C0223B310509F4F2C0233B310517
:1013500009F4F1C0243B310509F4F0C0253B310507
:1013600009F4EFC0263B310509F4EEC0273B3105F7
:1013700009F4EDC0283B310509F4ECC0293B3105E7
:1013800009F4EBC02A3B310509F4EAC020E034E45B
:1013900012C0211590E2390780F42F3F310509F082
:1013A00050F4283E310538F0C901805F910930655D
:1013B000409708F08FCFC9010895C9019F700E941E
:1013C0003A099C01F8CF8115944508F041C02115D8
:1013D00083E5380708F06AC0211592E5390738F52A
:1013E000211541E5340708F05CC0211580E5380778
:1013F00008F454C0C90134E0969587953A95E1F711
:101400008370422F46954695437090E2499FA00114
:101410001124582B822F837021E030E002C0220F6C
:10142000331F8A95E2F7242B352B3C68C4CFC901C2
:101430008370992741E050E002C0440F551F8A9500
:10144000E2F72695269580E2289F90011124EBCFA4
:10145000211596E5390748F4922F8827211535453F
:10146000C8F59C01246F306AA6CFC90190563F7021
:101470008115904108F02ECF30629DCFC901805C6C
:1014800091099DCF253A310549F1263A310549F5B3
:1014900022E830E490CF3327306C8DCF3F70306A34
:1014A0008ACF322F2227216F306A85CFC9018370FE
:1014B000992741E050E002C0440F551F8A95E2F79A
:1014C0002695269580E2289F90011124242B352B08
:1014D0003A6871CF88279F719C01CECF21E830E414
:1014E0006ACF23E830E467CF22EE34E464CF29EEFC
:1014F00034E461CF2AEE34E45ECF25EB34E45BCFF5
:1015000026EB34E458CF23EB34E455CF24EB34E41A
:1015100052CF27EB34E44FCF2CEC34E44CCF2DECFE
:1015200034E449CF23E835E446CF2AE835E443CF15
:1015300022E935E440CF24E935E43DCF21E236E429
:101540003ACF23E236E437CF24E236E434CF25E243
:1015500036E431CF26E236E42ECF27E236E42BCF35
:101560002AE236E428CF803E910581F1C8F4813328
:10157000910509F462C048F48932910509F456C016
:101580008A32910509F460C0089589339105B9F054
:1015900082389105A1F08533910509F440C0089582
:1015A000863E910561F138F4823E9105B1F0833EAB
:1015B0009105E1F00895873E910551F1089520913C
:1015C0007A022370D9F080EE90E0089520917A029B
:1015D00020FF14C089E390E0089520917A0222FF51
:1015E0000DC024FD09C083EE90E0089520917A0299
:1015F00022FD31C024FF02C090E080E008952091D8
:101600007A0223FFFBCF24FDF7CF87EE90E0089509
:1016100020917A0223FFEECF86EE90E0089520918C
:101620007A0225FFEBCF89E290E0089520917A02BB
:1016300025FFE4CF85E390E0089520917A0226FF0C
:10164000DDCF8AE290E0089520917A0226FFD6CF7E
:1016500081E390E0089582EE90E0089508950F935D
:101660001F93CF938C01FB018281811106C0C1E0E1
:101670008C2FCF911F910F910895C0914F01C111EF
:1016800025C00531104799F70E942E0B81E0809309
:101690004F010E94ED1990934E0180934D011092DD
:1016A000420110924401109243011092460110929F
:1016B0004501109248011092470110924A01109280
:1016C000490110924C0110924B01D2CF80914D01F3
:1016D00090914E010E94F919883C910540F6809145
:1016E0004201E82FF0E0EE0FFF1FED5BFE4F11838C
:1016F00000838F5F80934201C0E0BACF0C94D8077B
:101700000C94D90785B7806885BF85B7806885BF89
:10171000A4E2B1E061E070E08D91E82FE295EF7016
:10172000F0E041A18F709B0101C0220F8A95EAF77A
:10173000922F9095942391A382A1822B82A381E082
:10174000AA32B80749F7A3E1B1E061E070E08D91FA
:10175000E82FE295EF70F0E041A18F709B0101C08E
:10176000220F8A95EAF7922F9095942391A382A154
:10177000822B82A381E0A432B80749F7E8E6F1E0C2
:10178000A0E5B1E080E891E01192119211921192DE
:101790001D921D921D921D928E179F07A9F70C9402
:1017A0001D092F923F924F925F926F927F928F927C
:1017B0009F92AF92BF92CF92DF92EF92FF920F93E0
:1017C0001F93CF93DF93CDB7DEB72B970FB6F89467
:1017D000DEBF0FBECDBF80E5282E81E0382E04E2AB
:1017E00011E01E830D8338862F82C12CD12C760107
:1017F000C394AF81B8858D909D90AD90BD90B88712
:10180000AF83FD011292129212921292FB87EA8725
:10181000AD81BE818D91BE83AD83E82FE295EF70DF
:10182000F0E091A18F7001E010E002C0000F111FE5
:101830008A95E2F71A830983802F892B81A382A1DD
:1018400000950987802382A310EA1A95F1F723E116
:1018500031E03C832B8390E080E0AB81BC817D90C4
:10186000BC83AB83272D22952F7030E0D901909651
:101870005C90AA85BB854D915D916D917C91272DE2
:101880002F7001E010E002C0000F111F2A95E2F74F
:101890009801252109F07AC097018601082E04C01D
:1018A000000F111F221F331F0A94D2F7280139019C
:1018B0004429552966297729AA85BB854D935D93CF
:1018C0006D937C93139701968131910531F681A137
:1018D0001985182311A382A1B9818B2B82A3EA85D4
:1018E000FB8580819181A281B38188169906AA0621
:1018F000BB0649F0F1E0F09380010E94ED1990934E
:101900008201809381010F8118850856114009F0EA
:1019100070CF809180018823E9F0809181019091BE
:1019200082010E94F9190697A8F028E631E0F1013A
:1019300081919191A191B1911F01F90181939193AD
:10194000A193B1939F01F8E62F16F1E03F0679F7D6
:10195000109280010E941F0981E02B960FB6F89427
:10196000DEBF0FBECDBFDF91CF911F910F91FF90D2
:10197000EF90DF90CF90BF90AF909F908F907F902F
:101980006F905F904F903F902F900895412C512C75
:1019900032018ECFCF93DF9300D000D0CDB7DEB72A
:1019A00094E0899FF0011124E859FE4F80819181D4
:1019B000A281B381BC01CD010F900F900F900F90C9
:1019C000DF91CF91089508959093880180938701C6
:1019D0000895E0918701F0918801309721F00190FE
:1019E000F081E02D099480E00895E0918701F09165
:1019F0008801309721F00280F381E02D0994089549
:101A0000E0918701F0918801309721F00480F58101
:101A1000E02D0994089520918501309186012817C1
:101A2000390771F09093860180938501E0918701D9
:101A3000F0918801309721F00680F781E02D09941C
:101A4000089520918301309184012817390771F09E
:101A50009093840180938301E0918701F091880144
:101A6000309721F00084F185E02D099408950895C0
:101A70000C94370D0E94E4190E94820B0C94AD1A4D
:101A80004F925F926F927F929F92AF92BF92CF924E
:101A9000DF92EF92FF920F931F93CF93DF9300D0CB
:101AA00000D00F92CDB7DEB70E94D10B2AE8A22E4C
:101AB00021E0B22E10E000E0902E802F0E94CA0C90
:101AC0006B017C01F50141905190619071905F0133
:101AD0004C145D046E047F0409F475C080914902C2
:101AE00081FD0E94E30C90E080E04C245D246E2494
:101AF0007F24B301A201082E04C0769567955795FF
:101B000047950A94D2F740FF59C089839A82412CA5
:101B1000512C3201439404C0440C551C661C771CA4
:101B20008A95D2F7C420D520E620F72081E0CD2881
:101B3000CE28CF2809F480E08B830E94ED198160C4
:101B4000782F9D838C8349815A816B818D810E947E
:101B50000F0E000F111F000F111FF801E657FE4F67
:101B600080819181A281B38184259525A625B72501
:101B700080839183A283B3830E945A1D0E94E90C43
:101B8000909189018917B1F10E94E90C8093890134
:101B90000F900F900F900F900F90DF91CF911F91AA
:101BA0000F91FF90EF90DF90CF90BF90AF909F90FC
:101BB0007F906F905F904F900C9423090196813134
:101BC000910509F096CF0F5F1F4F0630110509F000
:101BD00073CF8FEF89838A831B820E94ED19816006
:101BE000782F9D838C8349815A816B818D810E94DE
:101BF0000F0EC2CF0F900F900F900F900F90DF91AC
:101C0000CF911F910F91FF90EF90DF90CF90BF90F9
:101C1000AF909F907F906F905F904F900895CF937B
:101C2000DF93CDB7DEB72B970FB6F894DEBF0FBEAC
:101C3000CDBF4F83588769877A878B871E8285E05F
:101C4000FE013796DE01119601900D928A95E1F71B
:101C500049815A816B817C818D819E812B960FB643
:101C6000F894DEBF0FBECDBFDF91CF910C948614E8
:101C7000882309F4D8C0823871F40E94E90C81FDF0
:101C8000D2C089E30E942B180E94F51889E30E94B4
:101C900068180C94F518833859F40E94E90C80FDFB
:101CA000C2C083E50E942B180E94F51883E5EFCF90
:101CB000843859F40E94E90C82FDB5C087E40E9483
:101CC0002B180E94F51887E4E2CF9CEF980F913A09
:101CD00018F40E942B18DDCF90E2980F983050F442
:101CE000877091E001C0990F8A95EAF7892F0E94C9
:101CF000AC18CFCF9BE5980F933070F4853A31F054
:101D0000863A39F083E890E00C940B0D81E890E07E
:101D1000FBCF82E890E0F8CF98E5980F953108F076
:101D200082C0883A09F440C0893A09F440C08A3A2E
:101D300009F440C08B3A09F440C08C3A09F440C021
:101D40008B3B09F440C08C3B09F440C08D3A09F448
:101D500040C0803B09F440C08E3A09F440C08F3A3D
:101D600009F440C0813B09F440C0823B09F440C003
:101D7000833B09F440C0843B09F440C0853B09F42F
:101D800040C0863B09F440C0873B09F440C0883B13
:101D900009F440C0893B09F440C08A3B09F440C0C3
:101DA00090E080E00C94210D82EE90E0FBCF89EE74
:101DB00090E0F8CF8AEE90E0F5CF85EB90E0F2CF9F
:101DC00086EB90E0EFCF83EB90E0ECCF84EB90E0FC
:101DD000E9CF87EB90E0E6CF8CEC90E0E3CF8DECA1
:101DE00090E0E0CF83E891E0DDCF8AE891E0DACFC0
:101DF00082E991E0D7CF84E991E0D4CF81E292E00B
:101E0000D1CF83E292E0CECF84E292E0CBCF85E2E5
:101E100092E0C8CF86E292E0C5CF87E292E0C2CFDF
:101E20008AE292E0BFCF0895882309F44BC082383C
:101E300071F40E94E90C81FF45C089E30E942B18D0
:101E40000E94F51889E30E9468180C94F5188338ED
:101E500059F40E94E90C80FF35C083E50E942B18DD
:101E60000E94F51883E5EFCF843859F40E94E90CFD
:101E700082FF28C087E40E942B180E94F51887E48F
:101E8000E2CF9CEF980F913AF0F290E2980F9830E1
:101E900050F4877091E001C0990F8A95EAF7892F75
:101EA0000E94B218D2CF9BE5980F933020F490E0B7
:101EB00080E00C940B0D885A853120F490E080E08E
:101EC0000C94210D0895882321F00E94AC180C94E5
:101ED000F5180895882321F00E94B2180C94F51883
:101EE00008958F929F92AF92BF92DF92EF92FF92EE
:101EF0000F931F93CF93DF9300D000D00F92CDB7F5
:101F0000DEB77C016D837983FC01058102950F703A
:101F1000128111110E94CB180E942418D82E8823F8
:101F200071F01123A1F08D81805E883080F082E015
:101F30000E940E180E94241891E0D82ED926E9811B
:101F4000E295EF70F0E0EB52F94D0C947126D12C34
:101F5000F6CF09810F70F981F07F11F00295007FB3
:101F60001123B1F0002361F08D81805E883018F07C
:101F70002D81211109C0802F0E94AC180E94F518F4
:101F80008D810E94380E15C0802F0E94BD18F6CF9B
:101F90008D810E94140F002361F08D81805E883056
:101FA00018F03D81311129C0802F0E94B2180E9483
:101FB000F518DD2009F4D3C10E94011880FDCFC1BE
:101FC000F70112820E94FB170E944416C7010E946B
:101FD000C0110E94FB170F900F900F900F900F9061
:101FE000DF91CF911F910F91FF90EF90DF90BF9005
:101FF000AF909F908F900C946616802F0E94C3180C
:10200000D6CF49814F70B42E5981507F503219F08C
:10201000B29480EFB8228D81882369F0813029F154
:10202000112369F1002359F0F701858180FFA8CFC2
:102030008F70858304C0112361F0011104C08B2DC2
:102040000E94630FB6CF8B2D0130D1F70E94DF18AD
:10205000B0CF011106C00E94E2188B2D0E946A0FBA
:10206000A8CF013009F4A5CFF6CF112321F0063017
:1020700008F09FCFE4CF053008F09BCFEECF0023D0
:1020800061F38D810E94140F94CF89818695869586
:10209000837069F0813009F08CCF8D8199819370C4
:1020A000111102C090E080E00E94210D82CF8D814D
:1020B00099819370111102C090E080E00E940B0D95
:1020C00078CF8D81112329F00E94681C0E944F1D3A
:1020D00070CF0E94D01CFACF8981837009F05FC055
:1020E000111167CF2D81229526952770220F220F7F
:1020F0008D818F7090E0B0E0A0E04C015D01022E78
:1021000004C0880C991CAA1CBB1C0A94D2F7FD8140
:1021100060E070E0CB01F4FF0FC06FE070E080E0A2
:1021200090E004C0660F771F881F991F2A95D2F789
:1021300060957095809590952981269526952370B8
:102140002D832230B1F0233019F19B01AC012829F5
:1021500039294A295B2929833A834B835C833D8152
:1021600069817A818B819C813130B1F00E94D115D7
:1021700020CF9B01AC01282939294A295B292983D1
:102180003A834B835C83CA01B9010E94FB1511CFCE
:102190000E94D115C501B4010E94A7150ACF8695EA
:1021A000112311F089818170882309F402CF2D81D8
:1021B000229526952770220F220F8D818F7090E037
:1021C000B0E0A0E04C015D01022E04C0880C991C17
:1021D000AA1CBB1C0A94D2F73D8160E070E0CB01E1
:1021E00034FF0FC06FE070E080E090E004C0660F45
:1021F000771F881F991F2A95D2F760957095809553
:10220000909549814695469543704D834230B1F093
:10221000433019F19B01AC01282939294A295B294E
:1022200029833A834B835C833D8169817A818B81E9
:102230009C813130B1F00E94D716BBCE9B01AC011E
:10224000282939294A295B2929833A834B835C83CE
:10225000CA01B9010E940117ACCE0E94D716C50170
:10226000B4010E94AD16A5CE3D81323F09F447C0AE
:1022700080F4303F79F1313FD9F1832F805E803196
:10228000D0F0112309F456C001117ACE89818F71E3
:1022900033C04D81433FD1F1443F99F7112309F4F5
:1022A0003FC089818F7189830E94441663E08981D0
:1022B0000E9405187ECE5D815F705D8389818F717C
:1022C000112321F00E9444168D81BACE0E94661619
:1022D0008D81C4CE112341F0053008F06ACE89818A
:1022E0008F710E948B1665CE063008F062CEF7CF54
:1022F00089818F71112339F00E9444165ACE898149
:102300008F711123C9F30E94661653CE112329F051
:1023100089818F710E942F164CCE0E94251649CEBE
:1023200081E00E940E18023008F443CE82E00E9441
:102330000E183FCE0111A5CE89818F71E4CF49815E
:102340004F706D81C7010E94D5070E94201531CEC4
:1023500049814F706D81C7010E9425092ACE0F90D7
:102360000F900F900F900F90DF91CF911F910F91D1
:10237000FF90EF90DF90BF90AF909F908F90089567
:102380000F931F93CF93DF93EC018B819C81892B5B
:1023900029F08881998189238F3F29F4DF91CF919A
:1023A0001F910F910895CE010E94EE078823B1F38B
:1023B000688179818A810E94D1178C010E942B1734
:1023C0000E949C15B801CE01DF91CF911F910F9112
:1023D0000C94710F0E94CB180E94DC180E949E186A
:1023E0000E94F5180E94401E0E944F1D90E080E060
:1023F0000E940B0D90E080E00C94210D0E94BA1811
:102400000C94EA110E94C517282F892F82958F708E
:10241000903C80F48A30B0F4843020F4823090F420
:1024200080E008958630E1F781E0203E88F0213F8A
:10243000B9F70EC08C3011F08F3091F793FB8827DD
:1024400080F9089581E0203F39F018F4203E40F7EC
:102450000895243F29F7FCCF0895CF93DF9300D050
:1024600000D00F92CDB7DEB70F900F900F900F9066
:102470000F90DF91CF910895CF93DF9300D000D0DC
:1024800000D0CDB7DEB726960FB6F894DEBF0FBEEC
:10249000CDBFDF91CF9108951F93CF93DF93E0914C
:1024A000A30116E08091A4018E1304C0DF91CF91A7
:1024B0001F910895CE2FD0E01E9FF0011124EB55FF
:1024C000FE4F4081518162817381848195810E9498
:1024D0003C12FE013196E770E5CF4091D501509155
:1024E000D6016091D7017091D8018091D901909166
:1024F000DA010C943C121F93CF93DF938091DA01A1
:10250000807FC1F48091D7018823A1F08091A3013D
:10251000C091A4016091D5017091D6014091D8017C
:102520005091D901D62FD723DA01A095B09516E0A6
:10253000C81304C0DF91CF911F91089590E0411519
:10254000510511F0DF3F31F401968770F1CF2A0F6A
:102550003B1F17C0189FF001199FF00D1124EB5578
:10256000FE4F21812713F0CF20812613EDCF22814A
:102570002111EACF238134812417350740F3241B2E
:10258000350B283C310500F72091DA012F702061CE
:102590002093DA0126E0289FF001299FF00D1124F5
:1025A000E655FE4F80818F708061808385ED91E0DC
:1025B0000E94C011DF91CF911F910C944C129F92F9
:1025C000AF92BF92CF92DF92EF92FF920F931F9341
:1025D000CF93DF93CDB7DEB72B970FB6F894DEBF5E
:1025E0000FBECDBF8C0185E0F801DE01179601908A
:1025F0000D928A95E1F7D8014C9111965C91119753
:102600001296EC9012978091D8019091D901009781
:1026100009F46BC12091D5013091D601632F62235B
:102620006F3F09F462C11396CD90DC909090D70172
:10263000992009F4F8C0C816D90608F43FC0F6017D
:10264000E81BF90BCF01FF24F394883C910508F0B7
:10265000F12C85EDA82E81E0B82E8091DA01982F1B
:10266000907FFF2009F4B7C0911180C0FE2C351374
:102670002AC0241328C0E11026C08F708061809387
:10268000DA010E946D12C5010E94C0118091DA0129
:10269000D80115968C938F2D2B960FB6F894DEBF2C
:1026A0000FBECDBFDF91CF911F910F91FF90EF90A3
:1026B000DF90CF90BF90AF909F90089580959095B8
:1026C0008C0D9D1DC0CFCD2829F0842F85238F3FF1
:1026D00009F019C180E0B82FB170DB2EE091A301A1
:1026E0002091A40136E080FD1CC0EE20A1F2809173
:1026F000DA0181608093DA01F12CCDCF8E2F90E04A
:102700003E9FF0011124EB55FE4F6181651306C019
:102710006081641303C062816E11E7CFFC013196C2
:10272000E770E213EBCF4F8358878F8198850E9423
:10273000C517292F22952F70903260F0225F2F70DD
:10274000223078F49F7051F0F8019581907F31F438
:10275000D12C0AC09F7011F08823D1F3805E88309D
:10276000B8F3C8010E94C011FD2C95CF351306C0E7
:10277000241304C0D801EE2009F47BC04F8358878E
:102780008F8198850E940212882309F4B8C0EE2038
:1027900009F4B5C08091DA01803270F02091D50142
:1027A0003091D6013A8329831B82DD82CC828E83CD
:1027B000CE0101960E94C01186E0F801A5EDB1E0BE
:1027C00001900D928A95E1F70E947B120E946D1292
:1027D000FF24F39460CF911113C07C2DDB86CA8651
:1027E0006E2D8B850E942D1285ED91E00E94C01107
:1027F00086E0F50111928A95E9F70E946D124BCFA0
:102800003513BCCF2413BACFE110B8CFD801159639
:102810008C93C8010E94C01186E0F50111928A953F
:10282000E9F7F92C38CFC816D90688F1B601681B2C
:10283000790BCB01F12C883C910508F047C0FE2CA8
:10284000EE2009F45CC0351330C024132EC08091F3
:10285000DA0180FD21C0982F907FF1F0D801159604
:102860008C931597903F39F0982F907F905F8F70E1
:10287000892B15968C93C8010E94C01186E0F8013F
:10288000A5EDB1E001900D928A95E1F7B6CF809564
:1028900090958C0D9D1DCECF86E0F801A5EDB1E0A1
:1028A00001900D928A95E1F7F6CE4F8358878F817C
:1028B00098850E94021281117FCF8091DA01816098
:1028C0008093DA01C8010E94C011E5CE7C2DDB8621
:1028D000CA866E2D8B850E942D1286E0E5EDF1E013
:1028E000DF011D928A95E9F788CFEE2041F04F83F2
:1028F00058878F8198850E94021281115DCFC8018F
:102900000E94C01165CF81E08E25E5CE1F93CF9345
:10291000DF93CDB7DEB72C970FB6F894DEBF0FBEAE
:10292000CDBF4F83588769877A878B879C87CE0175
:1029300007960E94DF12882369F08A859B85892B80
:1029400039F04F815885842F85238F3F09F071C05E
:1029500016E05FC086E0FE013796DE011196019019
:102960000D928A95E1F78A859B85892B89F3888565
:102970009F8189238F3F61F32091A40130E0C90139
:102980000196877099274091A3014817190671F4A1
:102990000E94FE111092A4011092A30186E0E5EDC1
:1029A000F1E0DF011D928A95E9F7D2CF96E0929F80
:1029B000D001939FB00D1124AB55BE4FFE0131964F
:1029C00001900D929A95E1F78093A4010E944C1218
:1029D000BFCF819FC00111248B559E4F0E94DF12F3
:1029E0008823E9F0E091A3011E9FF0011124EB552B
:1029F000FE4F4081518162817381848195810E9463
:102A00003C128091A30190E00196877099278093F2
:102A1000A3018091A3019091A4018913DACF2C9690
:102A20000FB6F894DEBF0FBECDBFDF91CF911F91DF
:102A3000089569857A858B859C850E943C1288CF94
:102A4000EF92FF920F931F93CF93DF938C01892B0B
:102A500089F0F12CEE24E394E8012196F8018491A9
:102A6000843709F457C0A0F4823009F43EC048F41A
:102A70008130D1F0DF91CF911F910F91FF90EF90B6
:102A800008959CEF980F9037A8F70E94380E0AC05F
:102A9000853709F44CC09CE7980F903758F78F772B
:102AA0000E94140F8E0116C00E5F1F4FFE0184910D
:102AB00090E2980F983060F48770FE2D01C0FF0FF0
:102AC0008A95EAF78F2F0E94CE180E94F51802C04F
:102AD0000E94380E8F2D815008F4BECFEFE9FFE041
:102AE0003197F1F700C00000F6CF0E5F1F4FFE01D7
:102AF000849190E2980F983050F48770FE2D01C0B9
:102B0000FF0F8A95EAF78F2F0E94D418DECF0E941C
:102B1000140FE0CF0E5F1F4FFE01C491C150D0F2E1
:102B20008FE99FE00197F1F700C00000F7CF0E5F3B
:102B30001F4FFE01F490CECF089560932002709352
:102B4000210280932202909323020C94EA11CF93E6
:102B5000DF9300D000D0CDB7DEB769837A838B8353
:102B60009C838091200290912102A0912202B09139
:102B7000230229813A814B815C81822B932BA42BE8
:102B8000B52B8093200290932102A0932202B09350
:102B900023020F900F900F900F90DF91CF910C9424
:102BA000EA11CF93DF9300D000D0CDB7DEB76983B1
:102BB0007A838B839C838091200290912102A09143
:102BC0002202B091230229813A814B815C818223C8
:102BD0009323A423B5238093200290932102A093F2
:102BE0002202B09323020F900F900F900F90DF916D
:102BF000CF910C94EA11CF93DF9300D000D0CDB7E2
:102C0000DEB769837A838B839C83809120029091C5
:102C10002102A0912202B091230229813A814B81A5
:102C20005C8182279327A427B52780932002909365
:102C30002102A0932202B09323020F900F900F90D5
:102C40000F90DF91CF910C94EA1110921C02109218
:102C50001D0210921E0210921F020C94EA1141E014
:102C600050E060E070E004C0440F551F661F771FFE
:102C70008A95D2F740931C0250931D0260931E0266
:102C800070931F020C94EA11282F81E090E0A0E0DD
:102C9000B0E004C0880F991FAA1FBB1F2A95D2F766
:102CA00040911C0250911D0260911E0270911F0202
:102CB000842B952BA62BB72B80931C0290931D027F
:102CC000A0931E02B0931F020C94EA1141E050E061
:102CD00060E070E004C0440F551F661F771F8A959F
:102CE000D2F7409550956095709580911C02909117
:102CF0001D02A0911E02B0911F0284239523A623DA
:102D0000B72380931C0290931D02A0931E02B093E0
:102D10001F020C94EA11282F81E090E0A0E0B0E0BF
:102D200004C0880F991FAA1FBB1F2A95D2F7409194
:102D30001C0250911D0260911E0270911F02842797
:102D40009527A627B72780931C0290931D02A09376
:102D50001E02B0931F020C94EA11CF93DF9300D0B0
:102D600000D0CDB7DEB769837A838B839C83809153
:102D70001C0290911D02A0911E02B0911F02298198
:102D80003A814B815C81822B932BA42BB52B8093B2
:102D90001C0290931D02A0931E02B0931F020F907D
:102DA0000F900F900F90DF91CF910C94EA11CF9379
:102DB000DF9300D000D0CDB7DEB769837A838B83F1
:102DC0009C8380911C0290911D02A0911E02B091E3
:102DD0001F0229813A814B815C8182239323A423A2
:102DE000B52380931C0290931D02A0931E02B09302
:102DF0001F020F900F900F900F90DF91CF910C94C6
:102E0000EA11CF93DF9300D000D0CDB7DEB769834E
:102E10007A838B839C8380911C0290911D02A091E8
:102E20001E02B0911F0229813A814B815C81822769
:102E30009327A427B52780931C0290931D02A0938B
:102E40001E02B0931F020F900F900F900F90DF9112
:102E5000CF910C94EA110895E82F21E1929FE00DA3
:102E600011248E2F877041E001C0440F8A95EAF744
:102E7000E695E695E69585E0E89FF0011124E55298
:102E8000FE4F30E020E070E05191DF011197CB015F
:102E9000022E02C0969587950A94E2F7817081957B
:102EA0008527842385278C932F5F3F4F253031055D
:102EB00059F70895E82F21E1929FE00D11249E2FEC
:102EC0009770E695E695E69585E0E89FF001112478
:102ED000E552FE4F50E040E080E0219130E0092EC5
:102EE00002C0369527950A94E2F721703327042E05
:102EF00001C0220F0A94EAF7822B4F5F5F4F4530E3
:102F0000510559F70895BF92CF92DF92EF92FF9249
:102F10000F931F93CF93DF938C01C0901C02D0902E
:102F20001D02E0901E02F0901F02809120029091FD
:102F30002102A0912202B0912302C82AD92AEA2AAA
:102F4000FB2ACFE1D0E0BC2ED701C6010C2E04C075
:102F5000B695A795979587950A94D2F780FD0EC0F0
:102F6000219788F7B12C8B2DDF91CF911F910F9175
:102F7000FF90EF90DF90CF90BF900895B8018C2F15
:102F80000E944209019761F3EECFCF93DF93D82FD0
:102F9000C92F0E9483176D2F7C2FDF91CF910C9446
:102FA00042091F93CF93DF93162FD72F9091A20141
:102FB000992339F0862F972FDF91CF911F910C9491
:102FC000C517882391F0862F972F0E948317C82F4B
:102FD000682F812F9D2F0E942C17612F7D2F8C2F02
:102FE000DF91CF911F910C944209862F972F0E9459
:102FF0005A17C82FF2CF8091240285958595859523
:103000000895809124028770089598E0899F900127
:103010001124622B609324020C9444169091240294
:103020008095892380932402282F277061F4282F0C
:10303000082E000C330B9217130629F08595859501
:1030400085950C946616089590912402977081E0FE
:1030500009F480E00895909112019923E1F0909194
:103060007A0297FF18C0E82FE695E695E695EF31CE
:1030700039F12091000130910101E20FF32FF11D90
:10308000877021E030E001C0220F8A95EAF7818144
:10309000822B818308952091000130910101F90173
:1030A00032969FEF40E05191851751F09F3F19F400
:1030B000511101C0942F4F5F4E31A9F79F3F09F482
:1030C0000895290F311D97FD3A95F90182830895DE
:1030D00090911201992301F190917A0297FF1CC0FF
:1030E000E82FE695E695E695EF3139F1209100015C
:1030F00030910101E20FF32FF11D877021E030E0E4
:10310000A90102C0440F551F8A95E2F7CA018095B4
:1031100091818923818308952091000130910101DB
:10312000F9013296205E3F4F9191891303C0DF0170
:1031300011971C92E217F307B9F7089581E090E028
:10314000E0910001F0910101E80FF91F1082019652
:1031500080329105A9F7089590914802982B909399
:1031600048020895982F9095809148028923809372
:103170004802089510924802089590914702982BB2
:10318000909347020895982F909580914702892344
:103190008093470208951092470208959091460245
:1031A000982B909346020895982F9095809146020F
:1031B00089238093460208951092460208958093D1
:1031C0002502089510922502089520910001309162
:1031D0000101F9013196205E3F4F80E091919111FC
:1031E0008F5FE217F307D1F70895E0910001F091A6
:1031F0000101809148028083E0910001F09101017A
:10320000808190914702892B8083E0910001F091A9
:103210000101808190914602892B80839091250243
:10322000992361F0E0910001F09101018081892BE7
:1032300080830E94E518811110922502809100017F
:10324000909101010C94F50C6DEE7EEF90E080E022
:103250000E94AB2660E082E090E00E94992660E048
:1032600083E090E00E94992660E084E090E00E9474
:10327000992660E085E090E00C94992690E080E04B
:103280000E9493269C0181E02D3E3E4F09F080E094
:10329000089582E090E00C948B26682F82E090E005
:1032A0000C94992683E090E00C948B26682F83E0A1
:1032B00090E00C94992684E090E00C948B26682F83
:1032C00084E090E00C94992680918002843039F15A
:1032D00010924A0288E190E020E40FB6F894A89595
:1032E000809360000FBE2093600080E00E9423095D
:1032F00083B7817F846083BF83B7816083BF789405
:10330000889583B78E7F83BF0FB6F894A895809178
:103310006000886180936000109260000FBE089585
:1033200008950895CF93DF9300D000D00F92CDB7CA
:10333000DEB70E9490190E94D10B0E9491191D8244
:103340008D810E94CA0C672B682B692B71F48D81CB
:103350008F5F8D838630A1F780E00F900F900F90E4
:103360000F900F90DF91CF91089581E0F6CF0E94EA
:10337000FE110E94E90C0C9423091F921FB61F92A4
:1033800011248F939F93AF93BF9380914A02811131
:1033900013C08091760290917702A0917802B0914B
:1033A00079024196A11DB11D809376029093770218
:1033B000A0937802B0937902BF91AF919F918F91C2
:1033C0001F901FBE1F90189582E084BD93E095BDAD
:1033D0009AEF97BD80936E0008952FB7F89480916F
:1033E000760290917702A0917802B09179022FBF76
:1033F0000895CF92DF92EF92FF929C014FB7F8941D
:103400008091760290917702A0917802B091790232
:103410004FBF6C017D01EE24FF24A90170E060E044
:10342000C416D506E606F70638F0821B930BFF900C
:10343000EF90DF90CF9008950197F7CF1F921FB6BE
:103440001F9211248F939F93AF93BF938091760225
:1034500090917702A0917802B09179020196A11D16
:10346000B11D8093760290937702A0937802B09377
:103470007902BF91AF919F918F911F901FBE1F90B6
:1034800018950E943422F8942FEF87EA91E6215094
:1034900080409040E1F700C0000087E090EBDC0145
:1034A0008093890290938A02A0938B02B0938C023E
:1034B00088E19CE00FB6F894A895809360000FBE59
:1034C00090936000FFCFAF92BF92CF92DF92EF92C6
:1034D000FF920F931F93CF93C0E0A82EB12C8C2F97
:1034E0000E94CA0C6B017C0110E000E0D701C6010C
:1034F000002E04C0B695A795979587950A94D2F7A4
:1035000080FF13C0602F7C2F80E00E942609A81640
:10351000B90659F481E0CF911F910F91FF90EF9080
:10352000DF90CF90BF90AF9008950F5F1F4F013194
:103530001105E1F6CF5FC63091F680E0ECCFCF9376
:10354000C82F8CE20E94631A882321F08C2FCF9120
:103550000C94631A80E0CF910895CF93DF9300D04D
:1035600000D0CDB7DEB70E943E19811102C00E9483
:10357000241995E6998308C00E94D10B8FE39CE93A
:103580000197F1F700C00000A981A150A983A11102
:10359000F3CF89E20E949F1A811110C18AE20E9432
:1035A0009F1A81110E94241985E00E949F1A81119F
:1035B0000E94411A0E9449198093490287E00E94A3
:1035C0009F1A882371F08BE10E949F1A882309F4C7
:1035D000D1C090914902892F8D7F91FF82608093A5
:1035E0004902809149020E944D190E945B1990E0A6
:1035F00090937B0280937A0280EE0E949F1A882328
:1036000041F090917A02892F8E7F90FF81608093A4
:103610007A0289E30E949F1A882341F090917A02EE
:10362000892F8D7F91FF826080937A0282EE0E94C3
:103630009F1A882341F090917A02892F8B7F92FF05
:10364000846080937A0286EE0E949F1A882341F05C
:1036500090917A02892F877F93FF886080937A0206
:1036600083EE0E949F1A882341F090917A02892F5D
:103670008F7E94FF806180937A0285E30E949F1A77
:10368000882341F090917A02892F8F7D95FF806287
:1036900080937A0281E30E949F1A882341F09091DF
:1036A0007A02892F8F7B96FF806480937A0281E172
:1036B0000E949F1A882341F090917A02892F97FBEC
:1036C00087F9805880937A0280917A020E945F196C
:1036D00087E20E949F1A89838EE10E949F1A8823A5
:1036E00019F0B981B260B9838FE10E949F1A8823D3
:1036F00019F029812460298380E20E949F1A88237F
:1037000019F039813860398381E20E949F1A882339
:1037100019F049814061498382E20E949F1A8823FF
:1037200019F059815062598383E20E949F1A8823BD
:1037300019F089818064898384E20E949F1A88231A
:10374000B1F199819068998389810E9456193981D4
:10375000232F30E050E040E029833A834B835C83A1
:10376000CA01B9010F900F900F900F90DF91CF9188
:103770000C949D158EE00E949F1A882339F0909139
:103780004902892F8B7F92FF846029CF80E10E94BC
:103790009F1A90914902882329F0892F877F93FFF0
:1037A00088601DCF892F8E7F90FF816018CFA981FF
:1037B000A111CACF0E945219282FCBCF0F900F9082
:1037C0000F900F90DF91CF91089580914D0280FF6F
:1037D00012C06091050185E0689FB00111247595C4
:1037E00067957595679560387105A8F56115710540
:1037F000A1F1862F089581FF09C06091050185E040
:10380000689FB001112475956795EDCF6091050112
:1038100082FD0AC080914E028823D1F0909104016C
:1038200060910501891728F085E0689FB001112497
:10383000DACF869FB001112485E0869F9001879F93
:10384000300D1124692F70E0C9010E945D26CBCF95
:1038500065E070E0CECF8FE7089581E00895809114
:103860004D0280FF0CC06091030170E07595679573
:10387000759567956115710549F1862F089581FF4A
:1038800006C06091030170E075956795F3CF609174
:10389000030182FD0BC090914E029923A1F060912B
:1038A000020180910301961738F0682F70E06038AC
:1038B000710500F38FE70895899FC001112470E01E
:1038C0000E945D26F4CF61E070E0D7CF81E00895DB
:1038D000803F31F40E94E51B819580935102089549
:1038E000813F19F40E94E51BF8CF823F31F40E941A
:1038F000E51B8195809350020895833F19F40E943F
:10390000E51BF8CF893F29F40E942F1C80935202B7
:1039100008958A3F21F40E942F1C8195F7CF8B3F99
:1039200031F40E942F1C81958093530208958C3F9F
:1039300019F40E942F1CF8CF843F31F480914F027C
:10394000816080934F020895853F21F480914F025A
:103950008260F7CF863F21F480914F028460F1CFDF
:10396000873F21F480914F028860EBCF883F21F49C
:1039700080914F028061E5CF8D3F31F480914D02FF
:10398000816080934D0208958E3F21F480914D0215
:103990008260F7CF8F3FB9F780914D028460F1CFFD
:1039A00090915002803F41F48091510287FD109226
:1039B0005102992371F00895813F29F480915102B9
:1039C0001816ACF3F6CF823F81F497FFF2CF109236
:1039D00050028091510290915202892B9091530292
:1039E000892B49F710924E020895833F19F4191656
:1039F00074F3DFCF893F39F4809152021816CCF668
:103A000010925202D6CF8A3F29F48091520287FF4A
:103A1000D0CFF6CF8B3F39F48091530287FFC9CFC7
:103A200010925302C6CF8C3F29F48091530218168E
:103A3000BCF3BFCF843F31F480914F028E7F8093DF
:103A40004F02B7CF853F21F480914F028D7FF7CF92
:103A5000863F21F480914F028B7FF1CF873F21F485
:103A600080914F02877FEBCF883F21F480914F02F6
:103A70008F7EE5CF8D3F31F480914D028E7F809314
:103A80004D0297CF8E3F21F480914D028D7FF7CF6D
:103A90008F3F09F08ECF80914D028B7FF0CF8FE466
:103AA00092E00E94000D0E94ED1990934C028093C9
:103AB0004B0208951F93CF93DF9300D000D000D026
:103AC000CDB7DEB780914B0290914C020E94F9195C
:103AD000AC0180914E022091060130E0811106C0B8
:103AE000209107019AE0299F900111244217530762
:103AF00088F020915002A0915102A98310915202A6
:103B0000B0915302BE8321110FC09A2F912B9B2B92
:103B100009F0B2C026960FB6F894DEBF0FBECDBF37
:103B2000DF91CF911F9108958F3F19F08F5F8093A0
:103B30004E02121624F40E94E51B809350028091DD
:103B4000500287FF05C00E94E51B819580935002BB
:103B50002981121624F40E94E51B80935102809162
:103B6000510287FF05C00E94E51B81958093510299
:103B700080915002882309F455C0309151023D8351
:103B8000332309F44FC0282F880F330B440B550BF8
:103B900029833A834B835C83CA01B9010E9464255F
:103BA00023E333E343E35FE369837A838B839C837B
:103BB00069817A818B819C810E94C82569837A837F
:103BC0008B839C8369817A818B819C810E942C25C7
:103BD000609350028D81082E000C990BAA0BBB0B31
:103BE00089839A83AB83BC83BC01CD010E94642589
:103BF00023E333E343E35FE369837A838B839C832B
:103C000069817A818B819C810E94C82569837A832E
:103C10008B839C8369817A818B819C810E942C2576
:103C200060935102111624F40E942F1C80935202BB
:103C30008091520287FF05C00E942F1C81958093BE
:103C400052029E81191624F40E942F1C8093530265
:103C50008091530287FF05C00E942F1C819580939D
:103C6000530226960FB6F894DEBF0FBECDBFDF918C
:103C7000CF911F910C944F1D8F3F09F057CF68CF04
:103C800085E0EFE4F2E0DF011D928A95E9F71092FA
:103C90004E0210924D020895809174020895CF93C0
:103CA000DF9300D00F92CDB7DEB720918002243091
:103CB00019F523E029838A839B832093E9008FEF02
:103CC0009091E800815095FD06C095ED9A95F1F729
:103CD00000008111F5CF8091E80085FF0DC050E014
:103CE00040E063E070E0CE0101960E94AC2080913C
:103CF000E8008E778093E8000F900F900F90DF918F
:103D0000CF910895CF93DF9300D00F92CDB7DEB758
:103D10009C0180918002843031F582E089832058B3
:103D200031093B832A8383E08093E9008FEF9091F0
:103D3000E800815095FD06C095ED9A95F1F70000D9
:103D40008111F5CF8091E80085FF0DC050E040E083
:103D500063E070E0CE0101960E94AC208091E80003
:103D60008E778093E8000F900F900F90DF91CF91A6
:103D70000895209180022430F1F422E02093E9009C
:103D80002FEF3091E800215035FD06C035ED3A9512
:103D9000F1F700002111F5CF2091E80025FF0BC0BD
:103DA00050E040E065E070E00E94AC208091E800C7
:103DB0008E778093E8000895CF93DF93D82FC92F93
:103DC000809180028430F1F4909112019923E9F0FE
:103DD00090917A0297FF19C08093E9008FEF90913C
:103DE000E800815095FD06C095E19A95F1F7000035
:103DF0008111F5CF8091E80050E040E060E270E092
:103E000085FD1AC0DF91CF91089581E08093E9008C
:103E10008FEF9091E800815095FD06C095ED9A9541
:103E2000F1F700008111F5CF8091E80085FFEACF1E
:103E300050E040E068E070E08D2F9C2F0E94AC20A5
:103E40008091E8008E778093E80080E2ED2FFC2FD0
:103E5000A4E5B2E001900D928A95E1F7D3CF80916D
:103E60007F02811109C00E9434220E949122809118
:103E7000E20084608093E200089510927F0208952A
:103E8000089508950C94B71942E061EC81E00E9416
:103E9000B02142E061EC82E00E94B02142E061EC9E
:103EA00083E00E94B02142E261EC84E00C94B021F6
:103EB00080918202893089F148F4823009F494C0FB
:103EC000833009F44FC0813041F008958A3009F4FD
:103ED0007BC08B3009F461C0089580918102813AE2
:103EE00009F03FC08091E800877F8093E8008091CF
:103EF000850290918602892B61F460E284E592E06C
:103F000070E00E94FB208091E8008B778093E800AE
:103F1000089560E090E080E0F3CF809181028132EB
:103F200001F58091850290918602009711F0039728
:103F3000C1F48091E800877F8093E8008091E800D9
:103F400082FF0BC08091F100809374028091E800A1
:103F50008B778093E8000C94E4218091800281119A
:103F6000EDCF089580918102813AD9F78091850241
:103F700090918602892BA9F78091E800877F809332
:103F8000E8008091E80080FFFCCF809112018093CF
:103F9000F1008091E8008E77DCCF80918102813240
:103FA00001F78091850290918602892BD1F680914C
:103FB000E800877F8093E8000E94E42180918302DB
:103FC000809312010C94FE1180918102813249F696
:103FD0008091E800877F8093E8000E94E42180912F
:103FE000840280937502089580918102813A09F0DC
:103FF000B8CF8091E800877F8093E8008091E80047
:1040000080FFFCCF80917502C2CF84B7877F84BFC9
:104010000FB6F894A8958091600088618093600045
:10402000109260000FBE80E88093610010926100E2
:104030000E94380D0E9434220E9491228091E20059
:1040400084608093E20078940E9411250E943A0DCA
:1040500088E091E00E94E40C80918002853019F0A4
:104060000E94400DF9CF0E94641980917E0288233E
:1040700099F30E949219882379F30E949620ECCF3D
:104080009C01DA01892F992783309105C1F068F4EA
:104090008130910509F445C0029761F48DE690E006
:1040A0002CE93DE02D933C93089581329105E1F098
:1040B000829739F190E080E030E020E0F3CFC90151
:1040C0009927213059F08230910559F0E8E9FDE057
:1040D000892B81F7849190E09F01E4CFE0E8FDE037
:1040E000F9CFECE6FDE0F6CF643020F7E62FF0E004
:1040F000EE0FFF1FEA5CFE4F2081318189E090E0E6
:10410000D1CF6430B8F670E0FB01EE0FFF1FE25D27
:10411000FE4F20813181665D7E4FFB01808190E002
:10412000C1CF82E190E029E03EE0BCCF80E189BDD3
:1041300082E189BD09B400FEFDCF8091D8008F7D5A
:104140008093D8008091E00082608093E0008091AD
:10415000E00081FDFCCF0895AF92BF92CF92DF9235
:10416000FF920F931F93CF93DF936C01EB018A01B2
:104170000E940322F82E811123C00115110539F088
:10418000F80180819181C81BD90BC80ED91EB12CB2
:10419000A12C2097A9F08091E80085FD22C0809194
:1041A000E8008E778093E80001151105A1F0F80171
:1041B00080819181A80EB91EB182A08285E0F82E7F
:1041C0008F2DDF91CF911F910F91FF90DF90CF90B6
:1041D000BF90AF9008950E9403228823D1F2F82E59
:1041E000EFCFF60181916F018093F1002197FFEFEE
:1041F000AF1ABF0ACECFFC01CB01209187023091CC
:1042000088022617370790F0009729F42091E800DC
:104210002E772093E80040E0009751F4411108C048
:104220008091E80082FF31C080E00895C901F3CF9A
:10423000209180022223A9F12530A9F12091E800E4
:1042400023FD2DC02091E80022FDEACF2091E80057
:1042500020FFE2CF3091F3002091F200009719F097
:104260002830310558F041E02830310509F040E0B0
:104270002091E8002E772093E800CECF4191409323
:10428000F10001972F5F3F4FE9CF80918002882393
:1042900041F0853041F08091E80083FFC1CF81E09B
:1042A000089582E0089583E00895FC01CB012091F8
:1042B0008702309188022617370790F0009729F47B
:1042C0002091E8002E772093E80040E0009751F419
:1042D000411108C08091E80082FF32C080E008955B
:1042E000C901F3CF209180022223B1F12530B1F131
:1042F0002091E80023FD2EC02091E80022FDEACFA6
:104300002091E80020FFE2CF3091F3002091F200ED
:10431000009719F02830310558F041E02830310578
:1043200009F040E02091E8002E772093E800CECFFE
:1043300044914093F100319601972F5F3F4FE8CFB2
:1043400080918002882341F0853041F08091E8001F
:1043500083FFC0CF81E0089582E0089583E008954F
:10436000982F973028F08F708093E90081E00895AE
:104370009093E900242F762F50E0981731F0709138
:10438000EC002091ED005091F00021FD02C09F5FF4
:10439000E8CF3091EB003E7F3093EB003091ED00A1
:1043A0003D7F3093ED003091EB0031603093EB00B6
:1043B0007093EC002093ED005093F0002091EE00FC
:1043C00027FDE5CF80E008958091810287FF13C02B
:1043D0008091E80082FF06C08091E8008B7780938F
:1043E000E80004C0809180028111F2CF089580918D
:1043F00080028823D9F38091E80080FFF8CF809174
:10440000E8008E77ECCF2091E4003091E50095E64E
:10441000A9012091EC00822F817020FF06C08091BD
:10442000E80080FF06C080E008952091E80022FDAA
:104430001AC080918002882389F0853089F08091AC
:10444000EB0085FD0FC02091E4003091E50042179C
:104450005307F9F29150E1F684E0089582E008955F
:1044600083E0089581E008950E94A2220E94AA227A
:10447000E0EEF0E0808181608083E8EDF0E0808113
:104480008F77808319BCA7EDB0E08C918E7F8C93E1
:1044900080818F7E808310927F0208950F931F93F7
:1044A000CF93DF930E94A2220E94AA22C8EDD0E0FF
:1044B00088818F77888388818068888388818F7DD1
:1044C000888319BC1092800210927C0210927E02A6
:1044D00010927D0200EE10E0F80180818B7F8083D6
:1044E00088818160888342E060E080E00E94B021A2
:1044F000E1EEF0E080818E7F8083E2EEF0E080816B
:1045000081608083808188608083F80180818E7FD4
:104510008083888180618883DF91CF911F910F9183
:104520000895E8EDF0E080818F7E8083E7EDF0E094
:1045300080818160808384E082BF81E080937F02FC
:104540000C944E22E8EDF0E080818E7F8083109203
:10455000E20008951092DA001092E10008951F928F
:104560000F920FB60F9211242F933F934F935F93A7
:104570006F937F938F939F93AF93BF93EF93FF932B
:104580008091E10082FF0BC08091E20082FF07C0B2
:104590008091E1008B7F8093E1000E941025809143
:1045A000DA0080FF19C08091D80080FF15C080918B
:1045B000DA008E7F8093DA008091D90080FF94C06A
:1045C00080E189BD82E189BD09B400FEFDCF81E0B3
:1045D000809380020E942F1F8091E10080FF19C00C
:1045E0008091E20080FF15C08091E2008E7F809371
:1045F000E2008091E20080618093E2008091D80027
:1046000080628093D80019BC85E0809380020E946C
:10461000411F8091E10084FF29C08091E20084FF66
:1046200025C080E189BD82E189BD09B400FEFDCFCE
:104630008091D8008F7D8093D8008091E1008F7E9B
:104640008093E1008091E2008F7E8093E200809170
:10465000E20081608093E20080917C02882309F46B
:1046600049C084E0809380020E94421F8091E10053
:1046700083FF29C08091E20083FF25C08091E10083
:10468000877F8093E10082E08093800210927C0219
:104690008091E1008E7F8093E1008091E2008E7F27
:1046A0008093E2008091E20080618093E20042E02A
:1046B00060E080E00E94B0218091F00088608093EB
:1046C000F0000E94401FFF91EF91BF91AF919F9129
:1046D0008F917F916F915F914F913F912F910F90AB
:1046E0000FBE0F901F90189519BC109280020E9467
:1046F0003D1F72CF8091E30087FD02C081E0B2CF01
:1047000083E0B0CF1F920F920FB60F9211242F9318
:104710003F934F935F936F937F938F939F93AF9349
:10472000BF93CF93DF93EF93FF93D091E900DF70B6
:104730008091EC00C82FC17080FDC0E81092E900A4
:104740008091F000877F8093F00078940E94C623C8
:104750001092E9008091F00088608093F000CD2BEA
:10476000CF70C093E900FF91EF91DF91CF91BF919E
:10477000AF919F918F917F916F915F914F913F91F9
:104780002F910F900FBE0F901F9018951F93CF93EE
:10479000DF93CDB7DEB7AA970FB6F894DEBF0FBE92
:1047A000CDBF81E892E0FC0101962091F1002083C9
:1047B00022E089389207B9F70E94581F8091E800DB
:1047C00083FF16C180918102909182029A3008F095
:1047D0000FC1E92FF0E0EB51F94D0C9471268038B0
:1047E00081F0823809F004C1809185028F70809336
:1047F000E9008091EB0085FB882780F91092E900A1
:1048000006C080917D0290917E029111826090910C
:10481000E800977F9093E8008093F1001092F100F8
:104820008091E8008E77E0C0882309F4CEC0823002
:1048300009F0DEC0809183028111D1C08091850290
:104840008F7009F4D5C08093E9002091EB0020FF20
:10485000C6C0933031F48091EB0080628093EB000E
:10486000BEC09091EB0090619093EB0021E030E0AE
:1048700001C0220F8A95EAF72093EA001092EA001D
:104880008091EB008860EACF8111B2C01091830261
:104890001F778091E3008078812B8093E3008091E3
:1048A000E800877F8093E8000E94E4218091E8007F
:1048B00080FFFCCF8091E30080688093E30082E07A
:1048C000111183E08093800293C08058823008F0F9
:1048D0008FC080918302909184028C3D23E09207E7
:1048E000A1F583E08A838AE289834FB7F894DE01D9
:1048F000139620E03EE051E2E32FF0E050935700A2
:10490000E49120FF03C0E295EF703F5FEF708E2FC0
:1049100090E0EA30C0F0C7968D939D932F5F2431CD
:1049200059F74FBF8091E800877F8093E8006AE2E3
:1049300070E0CE0101960E94FB208091E8008B7709
:104940008093E80055C0C096E7CFAE014F5F5F4F40
:10495000609185020E944020BC01892B09F448C067
:104960008091E800877F8093E80089819A810E9486
:104970005521E3CF8038E1F58091E800877F80936F
:10498000E80080917C028093F1004ACF811130C011
:1049900090918302923060F58091E800877F809348
:1049A000E80090937C020E94E42180917C0288239D
:1049B00011F084E005C08091E30087FDFACF81E02B
:1049C000809380020E94441F13C080918302813033
:1049D00079F481E0933009F080E080937E021092B8
:1049E000E9008091E800877F8093E8000E94E4213D
:1049F0008091E80083FF0AC08091E800877F809360
:104A0000E8008091EB0080628093EB00AA960FB6DD
:104A1000F894DEBF0FBECDBFDF91CF911F910895F7
:104A20000895CF93809180028823A1F0C091E9007E
:104A3000CF709091EC00892F817090FD80E8C82B99
:104A40001092E9008091E80083FD0E94C623CF7098
:104A5000C093E900CF9108950E9433256894B11165
:104A60000C94C22508950E94A72588F09F5798F0BE
:104A7000B92F9927B751B0F0E1F0660F771F881F63
:104A8000991F1AF0BA95C9F714C0B13091F00E947D
:104A9000C125B1E008950C94C125672F782F882790
:104AA000B85F39F0B93FCCF3869577956795B395A4
:104AB000D9F73EF490958095709561957F4F8F4F13
:104AC0009F4F0895E89409C097FB3EF49095809518
:104AD000709561957F4F8F4F9F4F9923A9F0F92FC4
:104AE00096E9BB279395F695879577956795B79542
:104AF000F111F8CFFAF4BB0F11F460FF1BC06F5F28
:104B00007F4F8F4F9F4F16C0882311F096E911C039
:104B1000772321F09EE8872F762F05C0662371F05A
:104B200096E8862F70E060E02AF09A95660F771F6E
:104B3000881FDAF7880F9695879597F9089557FD9E
:104B40009058440F551F59F05F3F71F04795880FFB
:104B500097FB991F61F09F3F79F087950895121692
:104B600013061406551FF2CF4695F1DF08C016163E
:104B700017061806991FF1CF8695710561050894EF
:104B80000895E894BB2766277727CB0197F9089506
:104B90000E94DB250C944C260E943E2638F00E9491
:104BA000452620F0952311F00C9435260C943B26D5
:104BB00011240C94C2250E949F2570F3959FC1F388
:104BC000950F50E0551F629FF001729FBB27F00DBB
:104BD000B11D639FAA27F00DB11DAA1F649F662710
:104BE000B00DA11D661F829F2227B00DA11D621F5F
:104BF000739FB00DA11D621F839FA00D611D221F19
:104C0000749F3327A00D611D231F849F600D211DFC
:104C1000822F762F6A2F11249F5750409AF0F1F07F
:104C200088234AF0EE0FFF1FBB1F661F771F881FE8
:104C300091505040A9F79E3F510580F00C943526C5
:104C40000C94C2255F3FE4F3983ED4F386957795A4
:104C50006795B795F795E7959F5FC1F7FE2B880F8E
:104C6000911D9695879597F9089597F99F6780E824
:104C700070E060E008959FEF80EC089500240A94AE
:104C80001616170618060906089500240A94121627
:104C90001306140605060895092E0394000C11F45A
:104CA000882352F0BB0F40F4BF2B11F460FF04C007
:104CB0006F5F7F4F8F4F9F4F089597FB072E16F41E
:104CC000009407D077FD09D00E94772607FC05D015
:104CD0003EF4909581959F4F0895709561957F4F13
:104CE0000895EE0FFF1F0590F491E02D0994AA1B83
:104CF000BB1B51E107C0AA1FBB1FA617B70710F0C7
:104D0000A61BB70B881F991F5A95A9F780959095F8
:104D1000BC01CD010895F999FECF92BD81BDF89AED
:104D2000992780B50895A8E1B0E042E050E00C94E6
:104D3000B326262FF999FECF92BD81BDF89A01972F
:104D400000B4021639F01FBA20BD0FB6F894FA9AD3
:104D5000F99A0FBE08950196272F0E949A260C9467
:104D60009926DC01CB01FC01F999FECF06C0F2BD0A
:104D7000E1BDF89A319600B40D9241505040B8F719
:104D80000895F894FFCF8E089A089E08A208A608F6
:104D9000AA08AE08B208B608BA08BE08C208C60813
:104DA000CA08CE08D208D608DA08A90FA90F011040
:104DB000011045106110D90FD90F6C10D90F3411A3
:104DC00034119F11D90FD90FA811EF231424F824FF
:0E4DD0001424F82444246524F824BA24C624AC
:104DDE0026022808140A321E4C1EDC1EB91E821E24
:104DEE004F1E01363760616263646566679091920B
:104DFE0093949596303132333435404D3639D70E43
:0E4E0E008A0E540E1B0EAE0DC70DE00DF90DF1
:00000001FF
